:02000000622874
:100008007E14803120007F08F1008B1A0B1D5E28BA
:100018000B117A087702031C1628F7010130F0004B
:100028007008B1077708031D1D283208F000700812
:10003800FA000130F0007008F7070130F00070088E
:10004800F806780803195E288C1D3128760A0319EA
:1000580031280130F0007008F6078C1DF6010C1EDF
:100068003C28750A03193C280130F0007008F50790
:100078000C1EF501AB308400813085000008F000CB
:100088007608700203184D280130F0007008B0009F
:100098004E28B001AB308400813085000008F000A4
:1000A8007508700203185D280130F0007008AF0071
:1000B8005E28AF017108FF007E1009006328A621A1
:1000C800F800A721F900A821FA00A921B100AA2166
:1000D800B200F501F601F701AF01B0017E10200072
:1000E8007528F0302100990023008C0121009D0122
:1000F80018308C0020008C0124008C0186302100EF
:100108009500A0308B002000AB01A901A90AAA0123
:10011800A701A801AD01AE01A201A3012000270398
:10012800031D9C283008031D9C28AD01AD0A9D289D
:10013800AD012803031DA6282F08031DA628AE011C
:10014800AE0AA728AE012708031DB0283003031DF7
:10015800B028A201A20AB128A2012808031DBA28C2
:100168002F03031DBA28A301A30ABB28A301300843
:10017800A0002008A7002F08A0002008A800A601BA
:10018800A60A3008031DCB282E08031DD6282F08E1
:10019800031DD1282D08031DD6282D08031D2E0860
:1001A8000319A6012608A0002008A40024080319A2
:1001B800EA282B08031DE2280130E3280030A000BC
:1001C8002008AB002908A0002008B1002B0803195B
:1001D800F9282D080319F2280130A9022E0803195D
:1001E800F9280130A0002008A9072B08031D1E29A3
:1001F8002D08031904292A08031904290130AA0221
:100208002E0803190F290C302A0203180F29013070
:10021800A0002008AA072A08833E8400813003181A
:10022800013E85000008A0002008B2003108A000A7
:100238002008A900AC0108302C0203183F2929081E
:10024800A0002C0A2829A036890B27292008013963
:10025800A1002108A5002508031934292C083529EF
:100268000A30482101302000A0002008AC070830DF
:100278002C02031C23292B0803194529083048217F
:100288009228093048219228F4000130F2007408BD
:100298009B3E840081300318013E85000008890ACE
:1002A8005629F235890B55290130F3007408903E20
:1002B800840081300318013E85000008890A6529F9
:1002C800F335890B642973087204FF3A21008C0006
:1002D8000130F20074089B3E840081300318013E0F
:1002E80085000008890A7929F235890B782972086E
:1002F80020008C008530890B7F2900000800F0342D
:1003080078345A344634373428341E3419340F3488
:100318000734033401340034013400340234013426
:100328000534023405340134023400340034003416
:100338000134013402340234053401340534003404
:1003480002340734013401340134013401340534F2
:020000040001F9
:04000E00A4FFFFDF6D
:00000001FF
