:020000002028B6
:100008007E14803120007F08F0008B1A0B1D1C28FD
:100018000B110130F8070030F93D083078067904F3
:10002800031D1C28F801F9010130FA070030FB3DD7
:100038007008FF007E1009002128F801F901FA0173
:10004800FB017E1020002828F030210099002300B1
:100058008C0121009D0118308C0020008C012400A7
:100068008C01873021009500A0308B00F601F70144
:100078007708803AF100803071020830031976025F
:1000880003183A28760AF1007B08F3007A08F20090
:100098005028730DF30CF20CF10B4D28013072054A
:1000A800F40000307305F50020008C017408750415
:1000B800031996280130F100770885007608840036
:1000C800AD3084078030853D0008890A6C28F135F9
:1000D800890B6B280130F2007708850076088400C8
:1000E800A23084078030853D0008890A7C28F235D3
:1000F800890B7B2872087104FF3A21008C000130BB
:10010800F1007708850076088400AD3084078030D8
:10011800853D0008890A9128F135890B90287108D6
:1001280020008C000D30F100FC30890B9928F10B70
:1001380099280130F6070030F73D3C280134003497
:1001480002340134053402340534013402340034F5
:1001580000340034013401340234023405340134EB
:080168000534003402340734B1
:020000040001F9
:04000E00A4FFFFDF6D
:00000001FF
