:040000000128FE2FA6
:100EDE000034013401340234023405340134053453
:100EEE000034023407340134003402340134053442
:100EFE00023405340134023400340034F030210061
:100F0E00990023008C0121009D0118308C002000D7
:100F1E008C0124008C018730F3000030F400F701BF
:100F2E00F801F701F8017808803AF000803070027D
:100F3E000830031977020318982F770AF000740807
:100F4E00F2007308F100AE2F720DF20CF10CF00BE3
:100F5E00AB2F01307105F50000307205F60001303F
:100F6E00F00078088500770884006F30840787309A
:100F7E00853D0008890AC42FF035890BC32F013037
:100F8E00F10078088500770884007A30840787306E
:100F9E00853D0008890AD42FF135890BD32F7108AE
:100FAE007004FF3A21008C00750876040319F22FA5
:100FBE000130F00078088500770884006F308407D0
:100FCE008730853D0008890AED2FF035890BEC2F0F
:100FDE00700820008C000D30F000FC30890BF52FCE
:100FEE00F00BF52F0130F7070030F83D9A2F200057
:020FFE00852F3D
:020000040001F9
:04000E00A4FFFFDF6D
:00000001FF
