:040000000128FE2FA6
:100E7A00F0302100990023008C0121009D018C0192
:100E8A0020008C0124008C01243021008C000130C8
:100E9A0020008C001A30F1005E30F0006E30890BB1
:100EAA00542FF00B542FF10B542F00322430210011
:100EBA008C00023020008C001A30F1005E30F00005
:100ECA006E30890B662FF00B662FF10B662F0032FE
:100EDA00213021008C00023020008C001A30F100F1
:100EEA005E30F0006E30890B782FF00B782FF10B03
:100EFA00782F0032213021008C00053020008C0030
:100F0A001A30F1005E30F0006E30890B8A2FF00B38
:100F1A008A2FF10B8A2F0032033021008C00043013
:100F2A0020008C001A30F1005E30F0006E30890B20
:100F3A009C2FF00B9C2FF10B9C2F003203302100C9
:100F4A008C00203020008C001A30F1005E30F00056
:100F5A006E30890BAE2FF00BAE2FF10BAE2F003295
:100F6A00053021008C00023020008C001A30F1007C
:100F7A005E30F0006E30890BC02FF00BC02FF10BE2
:100F8A00C02F0032053021008C00203020008C0058
:100F9A001A30F1005E30F0006E30890BD22FF00B60
:100FAA00D22FF10BD22F0032223021008C000130D7
:100FBA0020008C001A30F1005E30F0006E30890B90
:100FCA00E42FF00BE42FF10BE42F00322230210042
:100FDA008C00043020008C001A30F1005E30F000E2
:100FEA006E30890BF62FF00BF62FF10BF62F00322D
:060FFA00492F20003D2FED
:020000040001F9
:04000E00A4FFFFDF6D
:00000001FF
