:02000000862850
:100008007E14803120007F08F2008B1A0B1D822895
:100018000B117A087806031D1628F8010130F00044
:100028007008B0077808031D1D283108F000700813
:10003800FA000130F0007008F8070130F00070088D
:10004800F9067908031982288C1D4228B1308400EA
:10005800813085000008023EF000003003180130AE
:10006800F1007108803A803C031D3C287008770233
:10007800031842280130F0007008F70720008C1D93
:10008800F7010C1E5F28B13084008130850000081C
:10009800023EF000003003180130F1007108803A88
:1000A800803C031D59287008760203185F28013028
:1000B800F0007008F60720000C1EF601B13084002D
:1000C800813085000008F000770870020318712855
:1000D8000130F0007008AF007228AF01B130840021
:1000E800813085000008F000760870020318812826
:1000F8000130F0007008AE008228AE017208FF00DF
:100108007E1009008728AD21F900AE21FA00AF2141
:10011800B000B021B100F601F701F801AE01AF015E
:100128007E1020009728F0302100990023008C01D0
:1001380021009D0118308C0020008C0124008C01C6
:10014800863021009500A0308B002000A901A8016D
:10015800A80AA601A701AA01AB01A001A1012000DC
:100168002603031DBD282F08031DBD28AA01AA0ABE
:10017800BE28AA012703031DC7282E08031DC72868
:10018800AB01AB0AC828AB012608031DD1282F03F1
:10019800031DD128A001A00AD228A0012708031D09
:1001A800DB282E03031DDB28A101A10ADC28A101FD
:1001B8002F08F3007308A6002E08F3007308A700A1
:1001C800A501A50A2F08031DEC282B08031DF328F9
:1001D8002E08031DF2282A08031DF328A501250867
:1001E800F3007308A4002408031907292908031D2C
:1001F800FF28013000290030F3007308A9002808FF
:10020800F3007308B0002908031916292A080319EE
:100218000F290130A8022B08031916290130F30011
:100228007308A8072908031D31292A080319242956
:10023800D2303102031824290A30F3007308B107B9
:100248002B0803192D290C303102031C2D290A30E3
:10025800B1023008F3007308A800AC01AD012D0805
:10026800803AF30080307302083003192C02031817
:10027800B32820002808F3002C0A4329F336890BF9
:10028800422973080139F400F5017408A2007508C1
:10029800A3008C012208230403198A290130F300E2
:1002A8002D0885002C088400A23084078130853D04
:1002B8000008890A6029F335890B5F290130F400A9
:1002C8002D0885002C088400973084078130853DEF
:1002D8000008890A7029F435890B6F29740873049A
:1002E800FF3A21008C000130F30020002D08850022
:1002F8002C088400A23084078130853D0008890AD3
:100308008629F335890B852973088C000D30F30095
:10031800FC30890B8D29F30B8D2901302000AC07A7
:100328000030AD3D33290134003402340134053442
:10033800023405340134023400340034003401340A
:1003480001340234023405340134053400340234F3
:0C03580007340134013401340134053451
:020000040001F9
:04000E00A4FFFFDF6D
:00000001FF
