:040000000128FE2FA6
:100EC600F0302100990023008C0121009D018C0146
:100ED60020008C01243021008C00013020008C0081
:100EE6001A30F1005E30F0006E30890B782FF00B6F
:100EF600782FF10B782F0032243021008C0002303D
:100F060020008C001A30F1005E30F0006E30890B44
:100F16008A2FF00B8A2FF10B8A2F00322130210005
:100F26008C00023020008C001A30F1005E30F00098
:100F36006E30890B9C2FF00B9C2FF10B9C2F0032EF
:100F4600213021008C00043020008C001A30F10082
:100F56005E30F0006E30890BAE2FF00BAE2FF10B2A
:100F6600AE2F0032033021008C00043020008C00AC
:100F76001A30F1005E30F0006E30890BC02FF00B96
:100F8600C02FF10BC02F0032033021008C0020301F
:100F960020008C001A30F1005E30F0006E30890BB4
:100FA600D22FF00BD22FF10BD22F003205302100B9
:100FB6008C00023020008C001A30F1005E30F00008
:100FC6006E30890BE42FF00BE42FF10BE42F003287
:100FD600053021008C00203020008C001A30F100F2
:100FE6005E30F0006E30890BF62FF00BF62FF10B0A
:0A0FF600F62F00326D2F2000632F4C
:020000040001F9
:04000E00A4FFFFDF6D
:00000001FF
