:040000000128FE2FA6
:100EFA000734003401340134023402340534013435
:100F0A00053400340234003401340034023401342C
:100F1A00053402340534013402340034F03021003F
:100F2A00990023008C0121009D0118308C002000BB
:100F3A008C0124008C01F201F20A0130F0007208DF
:100F4A007D3E840087300318013E85000008890A27
:100F5A00AF2FF035890BAE2F0130F1007208883EB1
:100F6A00840087300318013E85000008890ABE2FD5
:100F7A00F135890BBD2F71087004FF3A21008C00EE
:100F8A000130F00072087D3E840087300318013E6C
:100F9A0085000008890AD22FF035890BD12F7008F5
:100FAA0020008C000C1AE82F0130F0007008F207BC
:100FBA000B30F1002630F0005E30890BE22FF00B87
:100FCA00E22FF10BE22F20008C19F82F0130F202E8
:100FDA000B30F1002630F0005E30890BF22FF00B57
:100FEA00F22FF10BF22F0B307202031CA22FF20127
:060FFA00A22F2000932F3E
:020000040001F9
:04000E00A4FFFFDF6D
:00000001FF
